:020000040800F2
:1000000018040020AD0100082F0B0008B50A0008F5
:100010002D0B0008B9020008C90B00080000000001
:10002000000000000000000000000000330B00088A
:10003000BB02000800000000310B0008350B00086F
:10004000C7010008C7010008C7010008C701000870
:10005000C7010008C7010008C7010008C701000860
:10006000C7010008C7010008C7010008C701000850
:10007000C7010008C7010008C7010008C701000840
:10008000C7010008C7010008C70100080000000000
:10009000000000000000000000000000C701000890
:1000A000C7010008C7010008C7010008C701000810
:1000B000C7010008C7010008C7010008C701000800
:1000C000C7010008C7010008C7010008C7010008F0
:1000D000C7010008C7010008C701000800000000B0
:1000E000C7010008C7010008C701000800000000A0
:1000F000000000000000000000000000C701000830
:1001000000000000C7010008C7010008C70100087F
:1001100000000000000000000000000000000000DF
:10012000C7010008C7010008C7010008C70100088F
:10013000C7010008000000000000000000000000EF
:10014000000000000000000000000000C7010008DF
:10015000C7010008C7010008C7010008C70100085F
:10016000C7010008C70100080000000000000000EF
:10017000000000000000000000000000000000007F
:1001800000000000C701000800000000000000009F
:10019000C7010008C7010008DFF80CD000F07AF8AA
:1001A00000480047090C0008180400200648804752
:1001B00006480047FEE7FEE7FEE7FEE7FEE7FEE74C
:1001C000FEE7FEE7FEE7FEE7AD0B00089901000839
:1001D0002DE9F05F0546002092469B46884606467C
:1001E000814640241BE0284641464746224600F00F
:1001F00041F853465A46C01A914110D31146184649
:10020000224600F028F82D1A67EB01084F462246D7
:100210000120002100F01FF817EB00094E41201EBD
:10022000A4F10104DFDC484631462A464346BDE8D6
:10023000F09FD2B201E000F8012B491EFBD27047BB
:100240000022F6E710B513460A4604461946FFF7A2
:10025000F0FF204610BD202A04DB203A00FA02F10C
:10026000002070479140C2F1200320FA03F31943A4
:1002700090407047202A04DB203A21FA02F0002146
:10028000704721FA02F3D040C2F1200291400843A6
:1002900019467047064C074D06E0E06840F0010340
:1002A00094E8070098471034AC42F6D3FFF778FF84
:1002B000700C0008900C0008FEE770472DE9F84F1D
:1002C00000224FF0010803254FF00F0E0B6808FACB
:1002D00002F42340A34271D14E68012E05D0022EB4
:1002E00003D0112E01D0122E15D18668570005FAC1
:1002F00007FC26EA0C06D1F80CC00CFA07FC4CEA05
:10030000060CC0F808C04668A6430C79C4F3001474
:10031000944034434460C668570005FA07FC8C6873
:1003200026EA0C06BC403443C4604C68022C01D061
:10033000122C13D1D40800EB8404A346D4F82090E7
:1003400054074FEAD46A0EFA0AF629EA06090E693A
:1003500006FA0AF646EA0906CBF8206004680E7928
:1003600024EA0C0406F00306BE40264306604C68EF
:10037000E40056D52E4C266846F480462660246854
:1003800022F0030604F4804400942A4C3444A4462A
:10039000D4F808489607370F0EFA07F6B443264EEE
:1003A000B04201D1002615E0244EB04201D1012611
:1003B00010E0234EB04202D102260BE031E0214E84
:1003C000B04201D1032605E01F4EB04201D1042600
:1003D00000E00726BE402643CCF808681B4E346870
:1003E0004F689C43FF0300D51C433460174E361DF5
:1003F00034684F689C43BF0300D51C433460134EE0
:10040000083634684F689C43FF0200D51C433460B3
:100410000E4E0C3634684F689C43BF0200D51C4317
:100420003460521C102AFFF451AFBDE8F88F000071
:100430004438024000300140000002400004024005
:1004400000080240000C024000100240003C014045
:100450000069084000D001207047426931EA020279
:1004600000D10904816170470AB1816170470904B4
:10047000FBE700000148806870470000040000208E
:1004800002488168027811448160704704000020AE
:100490000B4810B5016841F400710160016841F436
:1004A00080610160016841F480710160032000F007
:1004B00063F8002000F006F800F024F8002010BDDA
:1004C000003C024070B50D4D04464FF47A71287817
:1004D000B1FBF0F00A490968B1FBF0F000F0D6FA80
:1004E00048B9102C07D200222146501E00F024F8F3
:1004F00000206C6070BD012070BD00000400002071
:10050000100000200B4882B0016841F48041016076
:10051000006800F4804000900648001F016841F028
:1005200080510160006800F080500090072002B008
:1005300000F022B844380240F0B40E4B1B680C4661
:10054000C3F30223C3F10705042D00D90425191DA7
:10055000072901D2002300E0DB1E012606FA05F17F
:10056000491E214099409E40761E16403143F0BC02
:1005700000F02BBB0CED00E0064900F00702086814
:100580004FF6FF03184040EA0220034A1043086078
:10059000704700000CED00E00000FA052DE9F0477F
:1005A0000E46050065D0DFF81481D8F80000F7B2D8
:1005B00000F00F00B04207D288F80070D8F80000B1
:1005C00000F00F00B04254D128683D4C810712D58D
:1005D000400703D5206840F4E050206028780007E9
:1005E00003D5206840F4604020602068A96820F0AE
:1005F000F000084320602878C0072DD03049686893
:100600000839012812D0022813D0032811D0096814
:10061000890700292DDA216821F0030101432160B7
:10062000FFF728FF814641F2883A0EE00968890306
:10063000EFE709688901ECE7FFF71CFFA0EB090170
:10064000514502D90320BDE8F0872068696800F0B1
:100650000C00B0EB810FEFD1D8F80010404601F04C
:100660000F01B14207D90770006800F00F00B042D7
:1006700001D00120E7E72878400705D52068E96820
:1006800020F4E050084320602878000706D5206851
:10069000296920F4604040EAC100206000F018F8A9
:1006A0002168084AC1F30311515CC840064908603B
:1006B00006480068FFF706FF0020C4E7003C024040
:1006C00008380240600C00081000002008000020DC
:1006D000154810B5006810F00C02144813D04110F2
:1006E000042A0FD0082A0ED10F4C241F2268236839
:1006F00002F03F025B0207D52068C0F38810A0FB20
:10070000010106E0084610BD2168C1F38811A1FB74
:1007100000010023FFF75CFD2168C1F30141491C82
:100720004900B0FBF1F010BD083802400024F4008D
:100730002DE9F84F04006ED02078DFF83C93C00715
:10074000A9F104054AD009F104000168C1F381014F
:10075000012908D00068C0F3810002280AD1D9F825
:100760000000400206D52868800337D5606800285D
:10077000E1D033E06068B0F5803F10D0B0F5A02F35
:10078000286810D020F480302860286820F4802069
:1007900028606068A8B1FFF76DFE06460DE0286886
:1007A00040F48030F4E740F480202860F7E700BF91
:1007B000FFF760FE801B642873D828688003F7D594
:1007C0000CE0FFF757FE064605E000BFFFF752FEBC
:1007D000801B6428F0D828688003F7D42078DFF8DD
:1007E0009C8280074FF0000A3ED5A348001D016897
:1007F00011F00C0F08D00068C0F3810002280BD163
:10080000D9F80000400207D42868800716D5E068B0
:10081000012800D112E02BE1E068B8B10120C8F84E
:100820000000FFF727FE064605E000BFFFF722FEA7
:10083000801B0228C0D828688007F7D5286821695E
:1008400020F0F80040EAC10028600DE0C8F800A0E0
:10085000FFF710FE064604E0FFF70CFE801B02289F
:100860001FD828688007F7D42078000722D5824E49
:1008700083486169703671B101210160FFF7FAFDAB
:10088000074604E0FFF7F6FDC01B022809D83068D0
:100890008007F7D50EE0C0F800A0FFF7EBFD074694
:1008A00005E082E0FFF7E6FDC01B02287DD8306836
:1008B0008007F7D42078400768D5DFF8BCB100275F
:1008C0000BF13C0BDBF80000C0000BD4DBF8001090
:1008D00041F08051CBF80010DBF80000012700F058
:1008E00080500090674E3068C00510D4306840F4E6
:1008F00080703060FFF7BEFD009005E0FFF7BAFDA5
:100900000099401A022850D83068C005F6D55A4ED2
:10091000A0686C3601280FD00528306810D020F070
:1009200001003060306820F004003060A068B8B189
:10093000FFF7A0FD00900FE0306840F00100F4E701
:1009400040F004003060F7E7FFF794FD0099411A8A
:1009500041F28830814266D830688007F4D50EE0D5
:10096000FFF788FD009007E0FFF784FD0099411A2A
:1009700041F28830814256D830688007F4D42FB1D4
:10098000DBF8001021F08051CBF80010A069C8B34B
:100990003949091D0968C1F3810102294AD0022899
:1009A000504607D0C8F8600000E03CE0FFF762FD69
:1009B00004463BE04746C8F86000FFF75BFD06468B
:1009C00005E000BFFFF756FD801B02282BD82868E2
:1009D0008001F7D4D4E907010843A16A2A4A4908EB
:1009E00002EB0141626A41EA8211084394F82C103B
:1009F00040EA0161C9F8001001203866FFF73AFDAE
:100A0000044606E036E000BFFFF734FD001B022875
:100A100009D828688001F7D52CE000BFFFF72AFD30
:100A2000001B022802D90320BDE8F88F2868800146
:100A3000F4D41FE00128F7D0D9F80000E26900F4EF
:100A40008001914214D1226A00F03F0191420FD1FE
:100A500047F6C071626A0140914209D1A26A00F46E
:100A60004031914204D1E16A00F07060884201D0C7
:100A70000120D9E70020D7E70438024000004742B0
:100A8000800E4742007000400000FFFF10B5401E7E
:100A9000B0F1807F01D3012010BD4FF0E0246061F0
:100AA0000F21601700F091F80020A061072020615D
:100AB000002010BDFEE7000030B587B01421684665
:100AC000FFF7BEFB16480024016841F004010160F5
:100AD000016801F004010591016841F00101016024
:100AE0000068104D00F001000590224620212846A4
:100AF000FFF7BAFC4FF40050CDE9000469460A48FC
:100B00000294FFF7DBFB202000900120CDE90104D7
:100B1000694628460394FFF7D1FB07B030BD0000BB
:100B2000303802400000024000080240FEE77047F3
:100B300070477047FFF7A4BC10B592B030216846EB
:100B4000FFF77EFB14210CA8FFF77AFB1548002461
:100B5000016841F080510160006800F08050119000
:100B60001148016841F4404101600068069400F4B6
:100B7000404011900220009001200390102004902A
:100B80006846FFF7D5FD0F20CDE90C044FF48050E7
:100B9000CDE90E4000210CA81094FFF7FFFC12B025
:100BA00010BD000040380240007000400548016858
:100BB00041F47001016003494FF000608039086022
:100BC0007047000088ED00E0FEE70907090E0028E5
:100BD00004DB00F1E02080F80014704700F00F0003
:100BE00000F1E02080F8141D704702E008C8121FD1
:100BF00008C1002AFAD170477047002001E001C106
:100C0000121F002AFBD17047FFF742FCFFF794FF49
:100C1000FFF752FFDFF83C900F4D104C4FF00008EB
:100C20004FF40056012731462846FFF711FC40B12A
:100C3000207830B120214846FFF70FFC84F800806F
:100C4000F1E731462846FFF703FC0028EBD1277077
:100C5000E9E7000000000240000802400000002018
:100C6000000000000000000001020304060708095C
:100C7000900C00080000002014000000EA0B00089F
:100C8000A40C00081400002004040000FA0B000863
:100C90000100000001000000100000000000000042
:040CA0000024F40038
:040000050800019955
:00000001FF
