:020000040800F2
:1000000078040020AD010008BF0C0008BB0C0008FC
:10001000BD0C0008F5020008F10E00080000000009
:10002000000000000000000000000000C30C0008F9
:10003000F702000800000000C10C0008C50C000811
:10004000C7010008C7010008C7010008C701000870
:10005000C7010008C7010008C7010008C701000860
:10006000C7010008C7010008C7010008C701000850
:10007000C7010008C7010008C7010008C701000840
:10008000C7010008C7010008C70100080000000000
:10009000000000000000000000000000C701000890
:1000A000C7010008C7010008C7010008C701000810
:1000B000C7010008C7010008C7010008C701000800
:1000C000C7010008C7010008C7010008C7010008F0
:1000D000C7010008C7010008C701000800000000B0
:1000E000C7010008C7010008C701000800000000A0
:1000F000000000000000000000000000C701000830
:1001000000000000C7010008C7010008C70100087F
:1001100000000000000000000000000000000000DF
:10012000C7010008C7010008C7010008C70100088F
:10013000C7010008000000000000000000000000EF
:10014000000000000000000000000000C7010008DF
:10015000C7010008C7010008C7010008C70100085F
:10016000C7010008C70100080000000000000000EF
:10017000000000000000000000000000000000007F
:1001800000000000C701000800000000000000009F
:10019000C7010008C7010008DFF80CD000F098F88C
:1001A00000480047A912000878040020064880474C
:1001B00006480047FEE7FEE7FEE7FEE7FEE7FEE74C
:1001C000FEE7FEE7FEE7FEE7490D0008990100089B
:1001D0002DE9F05F0546002092469B46884606467C
:1001E000814640241BE0284641464746224600F00F
:1001F0005EF853465A46C01A914110D3114618462C
:10020000224600F045F82D1A67EB01084F462246BA
:100210000120002100F03CF817EB00094E41201EA0
:10022000A4F10104DFDC484631462A464346BDE8D6
:10023000F09FD2B201E000F8012B491EFBD27047BB
:100240000022F6E710B513460A4604461946FFF7A2
:10025000F0FF204610BD421C10F8011B0029FBD105
:10026000801A704730B50B46014600202022012439
:1002700009E021FA02F59D4205D303FA02F5491B74
:1002800004FA02F52844151EA2F10102F1DC30BD8A
:10029000202A04DB203A00FA02F100207047914046
:1002A000C2F1200320FA03F3194390407047202A3B
:1002B00004DB203A21FA02F00021704721FA02F310
:1002C000D040C2F120029140084319467047000017
:1002D000064C074D06E0E06840F0010394E8070093
:1002E00098471034AC42F6D3FFF75AFF801300084A
:1002F000A0130008FEE7704770B5044600F0D8F878
:100300000546601C02D004480078044400F0D0F890
:10031000401BA042FAD370BD080000202DE9F84F21
:1003200000224FF0010803254FF00F0E0B6808FA6A
:1003300002F42340A34271D14E68012E05D0022E53
:1003400003D0112E01D0122E15D18668570005FA60
:1003500007FC26EA0C06D1F80CC00CFA07FC4CEAA4
:10036000060CC0F808C04668A6430C79C4F3001414
:10037000944034434460C668570005FA07FC8C6813
:1003800026EA0C06BC403443C4604C68022C01D001
:10039000122C13D1D40800EB8404A346D4F8209087
:1003A00054074FEAD46A0EFA0AF629EA06090E69DA
:1003B00006FA0AF646EA0906CBF8206004680E79C8
:1003C00024EA0C0406F00306BE40264306604C688F
:1003D000E40056D52E4C266846F4804626602468F4
:1003E00022F0030604F4804400942A4C3444A446CA
:1003F000D4F808489607370F0EFA07F6B443264E8E
:10040000B04201D1002615E0244EB04201D10126B0
:1004100010E0234EB04202D102260BE031E0214E23
:10042000B04201D1032605E01F4EB04201D104269F
:1004300000E00726BE402643CCF808681B4E34680F
:100440004F689C43FF0300D51C433460174E361D94
:1004500034684F689C43BF0300D51C433460134E7F
:10046000083634684F689C43FF0200D51C43346053
:100470000E4E0C3634684F689C43BF0200D51C43B7
:100480003460521C102AFFF451AFBDE8F88F000011
:1004900044380240003001400000024000040240A5
:1004A00000080240000C024000100240003C0140E5
:1004B00001488068704700000800002002488168F9
:1004C0000278114481607047080000200B4810B585
:1004D000016841F400710160016841F480610160CC
:1004E000016841F480710160032000F063F800208E
:1004F00000F006F800F024F8002010BD003C024097
:1005000070B50D4D04464FF47A712878B1FBF0F0C8
:100510000A490968B1FBF0F000F0F6FA48B9102C6E
:1005200007D200222146501E00F024F800206C6003
:1005300070BD012070BD00000800002014000020E4
:100540000B4882B0016841F480410160006800F40A
:10055000804000900648001F016841F08051016012
:10056000006800F080500090072002B000F022B830
:1005700044380240F0B40E4B1B680C46C3F3022310
:10058000C3F10705042D00D90425191D072901D23F
:10059000002300E0DB1E012606FA05F1491E21407A
:1005A00099409E40761E16403143F0BC00F0B6BC28
:1005B0000CED00E0064900F0070208684FF6FF0363
:1005C000184040EA0220034A1043086070470000C8
:1005D0000CED00E00000FA052DE9F0470E4605009D
:1005E00065D0DFF81481D8F80000F7B200F00F00F2
:1005F000B04207D288F80070D8F8000000F00F0071
:10060000B04254D128683D4C810712D5400703D52C
:10061000206840F4E05020602878000703D5206867
:1006200040F4604020602068A96820F0F000084392
:1006300020602878C0072DD0304968680839012823
:1006400012D0022813D0032811D009688907002985
:100650002DDA216821F0030101432160FFF728FF13
:10066000814641F2883A0EE009688903EFE709689C
:100670008901ECE7FFF71CFFA0EB0901514502D906
:100680000320BDE8F0872068696800F00C00B0EB3B
:10069000810FEFD1D8F80010404601F00F01B142B0
:1006A00007D90770006800F00F00B04201D00120A8
:1006B000E7E72878400705D52068E96820F4E0508E
:1006C000084320602878000706D52068296920F4AF
:1006D000604040EAC100206000F038F82168084A14
:1006E000C1F30311515CC840064908600648006820
:1006F000FFF706FF0020C4E7003C02400838024034
:1007000054130008140000200C0000200448054980
:1007100000680968044AC1F38221515CC8407047EF
:1007200014000020083802406413000804480549FA
:1007300000680968044AC1F34231515CC8407047FF
:10074000140000200838024064130008154810B552
:10075000006810F00C02144813D04110042A0FD086
:10076000082A0ED10F4C241F2268236802F03F0292
:100770005B0207D52068C0F38810A0FB010106E0EA
:10078000084610BD2168C1F38811A1FB00010023B8
:10079000FFF71EFD2168C1F30141491C4900B0FB70
:1007A000F1F010BD083802400024F4002DE9F84FA4
:1007B00004006ED02078DFF83C93C007A9F104054F
:1007C0004AD009F104000168C1F38101012908D070
:1007D0000068C0F3810002280AD1D9F80000400265
:1007E00006D52868800337D560680028E1D033E05B
:1007F0006068B0F5803F10D0B0F5A02F286810D009
:1008000020F480302860286820F480202860606808
:10081000A8B1FFF74DFE06460DE0286840F4803091
:10082000F4E740F480202860F7E700BFFFF740FEC0
:10083000801B642873D828688003F7D50CE0FFF785
:1008400037FE064605E000BFFFF732FE801B642836
:10085000F0D828688003F7D42078DFF89C828007DE
:100860004FF0000A3ED5A348001D016811F00C0F9F
:1008700008D00068C0F3810002280BD1D9F800002D
:10088000400207D42868800716D5E068012800D107
:1008900012E02BE1E068B8B10120C8F80000FFF7D2
:1008A00007FE064605E000BFFFF702FE801B022898
:1008B000C0D828688007F7D52868216920F0F8009B
:1008C00040EAC10028600DE0C8F800A0FFF7F0FD85
:1008D000064604E0FFF7ECFD801B02281FD82868BD
:1008E0008007F7D42078000722D5824E83486169BB
:1008F000703671B101210160FFF7DAFD074604E0AF
:10090000FFF7D6FDC01B022809D830688007F7D54D
:100910000EE0C0F800A0FFF7CBFD074605E082E03F
:10092000FFF7C6FDC01B02287DD830688007F7D4CA
:100930002078400768D5DFF8BCB100270BF13C0BED
:10094000DBF80000C0000BD4DBF8001041F0805150
:10095000CBF80010DBF80000012700F08050009079
:10096000674E3068C00510D4306840F48070306045
:10097000FFF79EFD009005E0FFF79AFD0099401AF1
:10098000022850D83068C005F6D55A4EA0686C369B
:1009900001280FD00528306810D020F00100306009
:1009A000306820F004003060A068B8B1FFF780FD27
:1009B00000900FE0306840F00100F4E740F00400E0
:1009C0003060F7E7FFF774FD0099411A41F2883073
:1009D000814266D830688007F4D50EE0FFF768FDE5
:1009E000009007E0FFF764FD0099411A41F288305A
:1009F000814256D830688007F4D42FB1DBF800105C
:100A000021F08051CBF80010A069C8B33949091D05
:100A10000968C1F3810102294AD00228504607D053
:100A2000C8F8600000E03CE0FFF742FD04463BE010
:100A30004746C8F86000FFF73BFD064605E000BFEB
:100A4000FFF736FD801B02282BD828688001F7D4D9
:100A5000D4E907010843A16A2A4A490802EB014187
:100A6000626A41EA8211084394F82C1040EA01615D
:100A7000C9F8001001203866FFF71AFD044606E0A9
:100A800036E000BFFFF714FD001B022809D82868D4
:100A90008001F7D52CE000BFFFF70AFD001B0228FC
:100AA00002D90320BDE8F88F28688001F4D41FE044
:100AB0000128F7D0D9F80000E26900F480019142E2
:100AC00014D1226A00F03F0191420FD147F6C07164
:100AD000626A0140914209D1A26A00F44031914218
:100AE00004D1E16A00F07060884201D00120D9E7AA
:100AF0000020D7E70438024000004742800E4742FA
:100B0000007000400000FFFF10B5401EB0F1807F74
:100B100001D3012010BD4FF0E02460610F21601768
:100B200000F0FCF90020A06107202061002010BD2A
:100B300070B5040004D094F83900002510B106E027
:100B4000012070BD84F83850204600F023F824209E
:100B500084F839002068C16821F40051C160204642
:100B600000F000F92068016921F4904101612068DA
:100B7000416921F02A0141612068C16841F40051B6
:100B8000C160E563202084F8390084F83A00002031
:100B900070BD000010B586B0044614216846FFF70A
:100BA0004FFB14492068884221D113480021026874
:100BB00042F010020260006800F0100005900E483C
:100BC0001438026842F001020260006800F001007F
:100BD00005904FF4C06000900220CDE90101032090
:100BE00003900720049069460448FFF797FB06B07E
:100BF00010BD0000001001404438024000000240D7
:100C00002DE9F843044690F839001F4616460D4674
:100C1000202850D1B5B1AEB194F8380001284AD09F
:100C2000012084F838004FF00008C4F83C802120EF
:100C300084F83900FFF73CFCA6848146E68484F8FA
:100C4000388026E00120BDE8F883E08C401EE08477
:100C5000A0684B46B0F5805F4FF000024FF0800176
:100C60002046009703D000F011F9E8B90DE000F03C
:100C70000DF9C8B928882168C0F3080048602069C8
:100C800008B16D1C05E0AD1C03E0216815F8010BEF
:100C90004860E08C0028D8D14B46002240212046F5
:100CA000009700F0F3F808B10320CCE7202084F887
:100CB00039000020C7E70220C5E7FEE7FEE77047DE
:100CC00070477047FFF7FABB30B593B030216846E4
:100CD000FFF7B6FA14210CA8FFF7B2FA184800255E
:100CE000016841F080510160006800F0805011906F
:100CF0001448016841F4404101600068022400F496
:100D00004040119001200090000401908001CDE945
:100D1000064008AA0420642182E813000B9068466C
:100D2000FFF744FD0CA90F2081E83100E002CDE976
:100D30000F0503210CA8FFF74FFC13B030BD0000D6
:100D400040380240007000400548016841F47001DD
:100D5000016003494FF0006080390860704700006F
:100D600088ED00E02DE9F041044600680169E26881
:100D700021F44051114301612169A068E2690843EF
:100D80006169114308432168CA6849F20C639A43B8
:100D90000243CA6020684169A26921F4407111438D
:100DA0004161E069192764253226B0F5004F354AC4
:100DB000354920684FF0000806D0884201D09042A3
:100DC00036D1FFF7B3FC35E0884201D0904202D122
:100DD000FFF7ACFC01E0FFF799FC61684A18A0FB43
:100DE000070148EB0803FFF7F3F90146B0FBF5F004
:100DF0000201B1FBF5F06FF01803584301EB8000DE
:100E000006EBC000B0FBF5F000F0F80002EB40028A
:100E1000B1FBF5F0584301EB800006EBC000B0FBDE
:100E2000F5F000F00700216810448860BDE8F0810B
:100E3000FFF76CFC61688B0F8A00A0FB0701FFF7CE
:100E4000C7F90146B0FBF5F06FF01802504301EB13
:100E5000800006EB0010B0FBF5F000F0F002B1FBF3
:100E6000F5F002EB0012B1FBF5F06FF018035843F8
:100E700001EB800006EB0010B0FBF5F000F00F0076
:100E8000D1E7000000140140001001402DE9F041BD
:100E9000984617460E460446069D1DE0681C1BD06A
:100EA0002DB1FFF705FBA0EB0800A84214D920687C
:100EB000C16821F4D071C1602068416921F001014D
:100EC0004161202084F8390084F83A00002084F839
:100ED00038000320BDE8F0812068006836EA000091
:100EE00004D00020B842D9D00020F3E70120F9E770
:100EF000FEE700000FB4084B10B504A902AA03983E
:100F000000F02CF8044602A9002000F0C8F92046A1
:100F100010BC5DF814FB00009F1200080907090EC1
:100F2000002804DB00F1E02080F80014704700F096
:100F30000F0000F1E02080F8141D704702E008C89F
:100F4000121F08C1002AFAD170477047002001E043
:100F500001C1121F002AFBD1704700002DE9FF4F8D
:100F60008BB088460546002606E025280BD0DDE933
:100F70000D1290476D1C761C28780028F5D10FB013
:100F80003046BDE8F08F0024A146A2460122AE49BA
:100F900000E0044315F8013F203B02FA03F0084249
:100FA000F7D128782A2810D06FF02F022878A0F1E6
:100FB0003001092915D809EB890102EB410144F000
:100FC000020400EB01096D1CF0E758F8041B5FEA0E
:100FD000010903D544F40054C9F1000944F00204A6
:100FE0006D1C28782E2817D115F8010F44F0040441
:100FF0002A280ED06FF02F022878A0F1300109299D
:101000000AD80AEB8A0102EB410100EB010A6D1CD0
:10101000F2E758F804AB6D1C28786C280FD006DC7A
:101020004C2817D068280DD06A2814D104E0742801
:1010300010D07A280FD10DE044F400140AE044F4F3
:10104000801401E044F440146978814202D104F52F
:1010500080146D1C6D1C2878692865D006DC00287A
:101060008DD0632827D0642806D15DE06E2808D093
:1010700073282AD0752877D0DDE90D129047761CA9
:10108000E0E0C4F30250022809D003280DD0D8F8BC
:10109000001004280DD00E6008F10408D2E0D8F842
:1010A0000010F217C1E90062F6E7D8F800100E80D0
:1010B000F2E70E70F0E718F8041B8DF8001000201E
:1010C0008DF80100EB46012003E058F804BB4FF017
:1010D000FF3061074FF0000701D40AE07F1C57453D
:1010E0000DDA8742FADB1BF807100029F6D106E07B
:1010F0007F1C8742FCDB1BF807100029F8D1DDE9D3
:101100000D23A9EB07008146214600F0B1F83044D9
:10111000C61904E0DDE90D121BF8010B90477F1E94
:10112000F8D22146484688E058F8040BC4F302512F
:101130004FF00A0B032900D100B2042900D140B2BC
:10114000002802DA40422D2102E0210505D52B219D
:101150008DF82410012104E006E0E10710D02021E1
:10116000F6E708AF089113E058F8040BC4F30251F6
:101170004FF00A0B032900D180B2042900D1C0B27C
:101180000021EEE75946FFF76DF8303107F8011DF1
:101190000028F7D1ADEB070000F1200B600702D566
:1011A00024F4803401E04FF0010ADA4502DDAAEBB5
:1011B0000B0000E00020824600EB0B010898014480
:1011C000A9EB01000A90E00306D4DDE90D232146D6
:1011D0000A9800F04DF806444FF0000908E009A90C
:1011E00011F80900DDE90D12904709F10109761C9B
:1011F00008998945F3DBE0030CD5DDE90D23214691
:101200000A9800F035F8064404E0DDE90D123020BC
:101210009047761CBAF10001AAF1010AF5DC05E05D
:10122000DDE90D1217F8010B9047761CBBF10001A8
:10123000ABF1010BF4DC0A982146DDE90D2300F047
:1012400005F806446D1C97E6092801002DE9F041D8
:10125000044600251E461746880404D405E0394696
:101260002020B0476D1C641EF9D52846BDE8F081EA
:101270002DE9F041044600251E469046C80301D5DD
:10128000302700E02027880404D505E04146384691
:10129000B0476D1C641EF9D52846BDE8F0810A6888
:1012A000531C0B601070704708B5FFF70FF9FFF77C
:1012B0000BFD22480024016841F0800101600168B3
:1012C00001F080010091016841F0010101600068B6
:1012D0001B4900F0010000901A4801604FF4E13111
:1012E000C0E901140C21C460C0E904418461C461F7
:1012F000FFF71EFC144D4FF47A762878401CC0B2DC
:1013000028703B2800D92C706868FEF7A4FF82B2D1
:1013100033460C486968FFF773FC0A482A780BA12A
:101320004030FFF7E7FD074982B2334640310548B8
:10133000FFF766FC3046FEF7DFFFDEE7303802409D
:10134000001001401800002000000020202564202B
:101350000A0D00000000000000000000010203046C
:10136000060708090000000001020304706173739E
:10137000696E67207365636F6E64203A090D000023
:10138000A013000800000020180000003C0F000817
:10139000B813000818000020600400004C0F00087B
:1013A000000000006C1300080100000010000000A5
:0813B000000000000024F4001D
:040000050800019955
:00000001FF
