:020000040800F2
:1000000060040020AD010008830D0008390D0008D0
:10001000810D0008D9020008B50F0008000000009B
:10002000000000000000000000000000870D000834
:10003000DB02000800000000850D0008890D0008A3
:10004000C7010008C7010008C7010008C701000870
:10005000C7010008C7010008C7010008C701000860
:10006000C7010008C7010008C7010008C701000850
:10007000C7010008C7010008C7010008C701000840
:10008000C7010008C7010008C70100080000000000
:10009000000000000000000000000000C701000890
:1000A000C7010008C7010008C7010008C701000810
:1000B000C7010008C7010008C7010008C701000800
:1000C000C7010008C7010008C7010008C7010008F0
:1000D000C7010008C7010008C701000800000000B0
:1000E000C7010008C7010008C701000800000000A0
:1000F000000000000000000000000000C701000830
:1001000000000000C7010008C7010008C70100087F
:1001100000000000000000000000000000000000DF
:10012000C7010008C7010008C7010008C70100088F
:10013000C7010008000000000000000000000000EF
:10014000000000000000000000000000C7010008DF
:10015000C7010008C7010008C7010008C70100085F
:10016000C7010008C70100080000000000000000EF
:10017000000000000000000000000000000000007F
:1001800000000000C701000800000000000000009F
:10019000C7010008C7010008DFF80CD000F08AF89A
:1001A00000480047F50F000860040020064880471B
:1001B00006480047FEE7FEE7FEE7FEE7FEE7FEE74C
:1001C000FEE7FEE7FEE7FEE70D0E000899010008D6
:1001D0002DE9F05F0546002092469B46884606467C
:1001E000814640241BE0284641464746224600F00F
:1001F00050F853465A46C01A914110D3114618463A
:10020000224600F037F82D1A67EB01084F462246C8
:100210000120002100F02EF817EB00094E41201EAE
:10022000A4F10104DFDC484631462A464346BDE8D6
:10023000F09FD2B201E000F8012B491EFBD27047BB
:100240000022F6E710B513460A4604461946FFF7A2
:10025000F0FF204610BD30B505460020034600E003
:100260005B1C934205D2EC5CC85C201A01D1002CC7
:10027000F6D130BD202A04DB203A00FA02F100203A
:1002800070479140C2F1200320FA03F319439040D4
:100290007047202A04DB203A21FA02F0002170473F
:1002A00021FA02F3D040C2F12002914008431946DE
:1002B00070470000064C074D06E0E06840F001037F
:1002C00094E8070098471034AC42F6D3FFF768FF74
:1002D0000811000828110008FEE770472DE9F84FC3
:1002E00000224FF0010803254FF00F0E0B6808FAAB
:1002F00002F42340A34271D14E68012E05D0022E94
:1003000003D0112E01D0122E15D18668570005FAA0
:1003100007FC26EA0C06D1F80CC00CFA07FC4CEAE4
:10032000060CC0F808C04668A6430C79C4F3001454
:10033000944034434460C668570005FA07FC8C6853
:1003400026EA0C06BC403443C4604C68022C01D041
:10035000122C13D1D40800EB8404A346D4F82090C7
:1003600054074FEAD46A0EFA0AF629EA06090E691A
:1003700006FA0AF646EA0906CBF8206004680E7908
:1003800024EA0C0406F00306BE40264306604C68CF
:10039000E40056D52E4C266846F480462660246834
:1003A00022F0030604F4804400942A4C3444A4460A
:1003B000D4F808489607370F0EFA07F6B443264ECE
:1003C000B04201D1002615E0244EB04201D10126F1
:1003D00010E0234EB04202D102260BE031E0214E64
:1003E000B04201D1032605E01F4EB04201D10426E0
:1003F00000E00726BE402643CCF808681B4E346850
:100400004F689C43FF0300D51C433460174E361DD4
:1004100034684F689C43BF0300D51C433460134EBF
:10042000083634684F689C43FF0200D51C43346093
:100430000E4E0C3634684F689C43BF0200D51C43F7
:100440003460521C102AFFF451AFBDE8F88F000051
:1004500044380240003001400000024000040240E5
:1004600000080240000C024000100240003C014025
:1004700001488068704700000C0000200248816835
:1004800002781144816070470C0000200B4810B5C1
:10049000016841F400710160016841F4806101600C
:1004A000016841F480710160032000F063F80020CE
:1004B00000F006F800F024F8002010BD003C0240D7
:1004C00070B50D4D04464FF47A712878B1FBF0F009
:1004D0000A490968B1FBF0F000F0F6FA48B9102CAF
:1004E00007D200222146501E00F024F800206C6044
:1004F00070BD012070BD00000C000020180000201D
:100500000B4882B0016841F480410160006800F44A
:10051000804000900648001F016841F08051016052
:10052000006800F080500090072002B000F022B870
:1005300044380240F0B40E4B1B680C46C3F3022350
:10054000C3F10705042D00D90425191D072901D27F
:10055000002300E0DB1E012606FA05F1491E2140BA
:1005600099409E40761E16403143F0BC00F023BDFA
:100570000CED00E0064900F0070208684FF6FF03A3
:10058000184040EA0220034A104308607047000008
:100590000CED00E00000FA052DE9F0470E460500DD
:1005A00065D0DFF81481D8F80000F7B200F00F0032
:1005B000B04207D288F80070D8F8000000F00F00B1
:1005C000B04254D128683D4C810712D5400703D56D
:1005D000206840F4E05020602878000703D52068A8
:1005E00040F4604020602068A96820F0F0000843D3
:1005F00020602878C0072DD0304968680839012864
:1006000012D0022813D0032811D0096889070029C5
:100610002DDA216821F0030101432160FFF728FF53
:10062000814641F2883A0EE009688903EFE70968DC
:100630008901ECE7FFF71CFFA0EB0901514502D946
:100640000320BDE8F0872068696800F00C00B0EB7B
:10065000810FEFD1D8F80010404601F00F01B142F0
:1006600007D90770006800F00F00B04201D00120E8
:10067000E7E72878400705D52068E96820F4E050CE
:10068000084320602878000706D52068296920F4EF
:10069000604040EAC100206000F038F82168084A54
:1006A000C1F30311515CC840064908600648006860
:1006B000FFF706FF0020C4E7003C02400838024074
:1006C000C810000818000020100000200448054948
:1006D00000680968044AC1F38221515CC840704730
:1006E0001800002008380240D810000804480549C6
:1006F00000680968044AC1F34231515CC840704740
:100700001800002008380240D8100008154810B51D
:10071000006810F00C02144813D04110042A0FD0C6
:10072000082A0ED10F4C241F2268236802F03F02D2
:100730005B0207D52068C0F38810A0FB010106E02A
:10074000084610BD2168C1F38811A1FB00010023F8
:10075000FFF73EFD2168C1F30141491C4900B0FB90
:10076000F1F010BD083802400024F4002DE9F84FE4
:1007700004006ED02078DFF83C93C007A9F104058F
:100780004AD009F104000168C1F38101012908D0B0
:100790000068C0F3810002280AD1D9F800004002A5
:1007A00006D52868800337D560680028E1D033E09B
:1007B0006068B0F5803F10D0B0F5A02F286810D049
:1007C00020F480302860286820F480202860606849
:1007D000A8B1FFF74DFE06460DE0286840F48030D2
:1007E000F4E740F480202860F7E700BFFFF740FE01
:1007F000801B642873D828688003F7D50CE0FFF7C6
:1008000037FE064605E000BFFFF732FE801B642876
:10081000F0D828688003F7D42078DFF89C8280071E
:100820004FF0000A3ED5A348001D016811F00C0FDF
:1008300008D00068C0F3810002280BD1D9F800006D
:10084000400207D42868800716D5E068012800D147
:1008500012E02BE1E068B8B10120C8F80000FFF712
:1008600007FE064605E000BFFFF702FE801B0228D8
:10087000C0D828688007F7D52868216920F0F800DB
:1008800040EAC10028600DE0C8F800A0FFF7F0FDC5
:10089000064604E0FFF7ECFD801B02281FD82868FD
:1008A0008007F7D42078000722D5824E83486169FB
:1008B000703671B101210160FFF7DAFD074604E0EF
:1008C000FFF7D6FDC01B022809D830688007F7D58E
:1008D0000EE0C0F800A0FFF7CBFD074605E082E080
:1008E000FFF7C6FDC01B02287DD830688007F7D40B
:1008F0002078400768D5DFF8BCB100270BF13C0B2E
:10090000DBF80000C0000BD4DBF8001041F0805190
:10091000CBF80010DBF80000012700F080500090B9
:10092000674E3068C00510D4306840F48070306085
:10093000FFF79EFD009005E0FFF79AFD0099401A31
:10094000022850D83068C005F6D55A4EA0686C36DB
:1009500001280FD00528306810D020F00100306049
:10096000306820F004003060A068B8B1FFF780FD67
:1009700000900FE0306840F00100F4E740F0040020
:100980003060F7E7FFF774FD0099411A41F28830B3
:10099000814266D830688007F4D50EE0FFF768FD25
:1009A000009007E0FFF764FD0099411A41F288309A
:1009B000814256D830688007F4D42FB1DBF800109C
:1009C00021F08051CBF80010A069C8B33949091D46
:1009D0000968C1F3810102294AD00228504607D094
:1009E000C8F8600000E03CE0FFF742FD04463BE051
:1009F0004746C8F86000FFF73BFD064605E000BF2C
:100A0000FFF736FD801B02282BD828688001F7D419
:100A1000D4E907010843A16A2A4A490802EB0141C7
:100A2000626A41EA8211084394F82C1040EA01619D
:100A3000C9F8001001203866FFF71AFD044606E0E9
:100A400036E000BFFFF714FD001B022809D8286814
:100A50008001F7D52CE000BFFFF70AFD001B02283C
:100A600002D90320BDE8F88F28688001F4D41FE084
:100A70000128F7D0D9F80000E26900F48001914222
:100A800014D1226A00F03F0191420FD147F6C071A4
:100A9000626A0140914209D1A26A00F44031914258
:100AA00004D1E16A00F07060884201D00120D9E7EA
:100AB0000020D7E70438024000004742800E47423A
:100AC000007000400000FFFF10B5401EB0F1807FB5
:100AD00001D3012010BD4FF0E02460610F216017A9
:100AE00000F069FA0020A06107202061002010BDFD
:100AF00070B5040004D094F83900002510B106E068
:100B0000012070BD84F83850204600F023F82420DE
:100B100084F839002068C16821F40051C160204682
:100B200000F082F92068016921F490410161206898
:100B3000416921F02A0141612068C16841F40051F6
:100B4000C160E563202084F8390084F83A00002071
:100B500070BD000010B586B0044614216846FFF74A
:100B60006FFB14492068884221D113480021026894
:100B700042F010020260006800F0100005900E487C
:100B80001438026842F001020260006800F00100BF
:100B900005904FF4C06000900220CDE901010320D0
:100BA00003900720049069460448FFF797FB06B0BE
:100BB00010BD000000100140443802400000024017
:100BC0002DE9F843044690F83A00994616460D463A
:100BD000202852D1BDB1B6B194F8380001284CD0CC
:100BE000012084F838000027E763222084F83A00C7
:100BF0002C34FFF73DFC24F8026B804624F80A6B86
:100C000004F8387931E00120BDE8F883E08D401E1A
:100C1000E085A0684346B0F5805F4FF000024FF0DA
:100C200020012046CDF8009004D000F091F998B151
:100C30000320E9E700F08CF90028F9D120690028A9
:100C40002068406803D0C1B225F8011B0DE0C0F355
:100C5000080125F8021B08E0206900282068406888
:100C600001D000F07F0005F8010BE08D0028CDD108
:100C7000202084F83A000020C6E70220C4E72DE9CE
:100C8000F843044690F839001F4616460D462028C2
:100C900050D1B5B1AEB194F8380001284AD0012046
:100CA00084F838004FF00008C4F83C80212084F814
:100CB0003900FFF7DDFBA6848146E68484F838809E
:100CC00026E00120BDE8F883E08C401EE084A068A7
:100CD0004B46B0F5805F4FF000024FF08001204698
:100CE000009703D000F034F9E8B90DE000F030F9D6
:100CF000C8B928882168C0F308004860206908B195
:100D00006D1C05E0AD1C03E0216815F8010B48607F
:100D1000E08C0028D8D14B46002240212046009785
:100D200000F016F908B10320CCE7202084F8390040
:100D30000020C7E70220C5E7FEE700000D4882B0AB
:100D40000021026842F01002026000680A4A00F0C6
:100D500010000090094802604FF41652C0E90121CA
:100D60000C22C160C0E904128161C16102B0FFF7C9
:100D7000BFBE000044380240001001401C000020AB
:100D8000FEE7704770477047FFF778BB30B593B008
:100D900030216846FFF754FA14210CA8FFF750FAE7
:100DA00018480025016841F080510160006800F09A
:100DB000805011901448016841F44041016000687E
:100DC000022400F4404011900120009000040190A2
:100DD0008001CDE9064008AA0420642182E81300BE
:100DE0000B906846FFF7C2FC0CA90F2081E8310088
:100DF000E002CDE90F0503210CA8FFF7CDFB13B0EE
:100E000030BD0000403802400070004005480168D5
:100E100041F47001016003494FF0006080390860BF
:100E20007047000088ED00E02DE9F04104460068BD
:100E30000169E26821F44051114301612169A06810
:100E4000E26908436169114308432168CA6849F2AD
:100E50000C639A430243CA6020684169A26921F485
:100E6000407111434161E069192764253226B0F5CC
:100E7000004F354A354920684FF0000806D08842B7
:100E800001D0904236D1FFF731FC35E0884201D0E5
:100E9000904202D1FFF72AFC01E0FFF717FC6168DE
:100EA0004A18A0FB070148EB0803FFF791F9014638
:100EB000B0FBF5F00201B1FBF5F06FF018035843F9
:100EC00001EB800006EBC000B0FBF5F000F0F8008D
:100ED00002EB4002B1FBF5F0584301EB800006EB5A
:100EE000C000B0FBF5F000F00700216810448860F6
:100EF000BDE8F081FFF7EAFB61688B0F8A00A0FB79
:100F00000701FFF765F90146B0FBF5F06FF0180235
:100F1000504301EB800006EB0010B0FBF5F000F051
:100F2000F002B1FBF5F002EB0012B1FBF5F06FF04F
:100F30001803584301EB800006EB0010B0FBF5F0FE
:100F400000F00F00D1E70000001401400010014044
:100F50002DE9F041984617460E460446069D1DE0D1
:100F6000681C1BD02DB1FFF783FAA0EB0800A84244
:100F700014D92068C16821F4D071C160206841692A
:100F800021F001014161202084F8390084F83A0001
:100F9000002084F838000320BDE8F0812068006854
:100FA00036EA000004D00020B842D9D00020F3E790
:100FB0000120F9E7FEE70907090E002804DB00F12C
:100FC000E02080F80014704700F00F0000F1E020EE
:100FD00080F8141D704702E008C8121F08C1002ADB
:100FE000FAD170477047002001E001C1121F002AAA
:100FF000FBD1704708B5FFF749FAFFF7C7FE234852
:10100000016841F080010160016801F080010091F8
:10101000016841F001010160006800F001000090EA
:10102000FFF78CFE1A4C64230E221A482168FFF742
:1010300026FE4FF47A752B46172261681EE02B4678
:10104000172214486168FFF71AFE1149642304222D
:1010500008311048FFF7B4FD0D4804220EA10830F6
:10106000FFF7F9F870B10A4804220DA10830FFF724
:10107000F2F80028E3D164230C220BA10548FFF706
:10108000FEFDDCE764230C220BA1F7E730380240B9
:10109000000000201C0000204C45443100000000EE
:1010A0004C454432000000004C4544322059414E2A
:1010B00044490A0D000000004C4544312059414E7E
:1010C00044490A0D0000000000000000000000007C
:1010D00001020304060708090000000001020304DE
:1010E0005561727420737461727465640A0D000036
:1010F000706C6561736520656E746572206C6564E3
:1011000020636F64650A0D002811000800000020AC
:101110001C000000D60F0008441100081C0000202D
:1011200044040000E60F0008E0100008F01000087A
:10113000000000000100000010000000000000009E
:041140000024F40093
:040000050800019955
:00000001FF
